{
  "_format": "hh-sol-artifact-1",
  "contractName": "Keyboards",
  "sourceName": "contracts/Keyboards.sol",
  "abi": [
    {
      "inputs": [],
      "stateMutability": "nonpayable",
      "type": "constructor"
    },
    {
      "anonymous": false,
      "inputs": [
        {
          "components": [
            {
              "internalType": "enum Keyboards.KeyboardKind",
              "name": "kind",
              "type": "uint8"
            },
            {
              "internalType": "bool",
              "name": "isPBT",
              "type": "bool"
            },
            {
              "internalType": "string",
              "name": "filter",
              "type": "string"
            },
            {
              "internalType": "address payable",
              "name": "owner",
              "type": "address"
            }
          ],
          "indexed": false,
          "internalType": "struct Keyboards.Keyboard",
          "name": "keyboard",
          "type": "tuple"
        }
      ],
      "name": "KeyboardCreated",
      "type": "event"
    },
    {
      "anonymous": false,
      "inputs": [
        {
          "indexed": false,
          "internalType": "address",
          "name": "recipient",
          "type": "address"
        },
        {
          "indexed": false,
          "internalType": "uint256",
          "name": "amount",
          "type": "uint256"
        }
      ],
      "name": "TipSent",
      "type": "event"
    },
    {
      "inputs": [
        {
          "internalType": "enum Keyboards.KeyboardKind",
          "name": "_kind",
          "type": "uint8"
        },
        {
          "internalType": "bool",
          "name": "_isPBT",
          "type": "bool"
        },
        {
          "internalType": "string",
          "name": "_filter",
          "type": "string"
        }
      ],
      "name": "createKeyboard",
      "outputs": [],
      "stateMutability": "nonpayable",
      "type": "function"
    },
    {
      "inputs": [
        {
          "internalType": "uint256",
          "name": "",
          "type": "uint256"
        }
      ],
      "name": "createdKeyboards",
      "outputs": [
        {
          "internalType": "enum Keyboards.KeyboardKind",
          "name": "kind",
          "type": "uint8"
        },
        {
          "internalType": "bool",
          "name": "isPBT",
          "type": "bool"
        },
        {
          "internalType": "string",
          "name": "filter",
          "type": "string"
        },
        {
          "internalType": "address payable",
          "name": "owner",
          "type": "address"
        }
      ],
      "stateMutability": "view",
      "type": "function"
    },
    {
      "inputs": [],
      "name": "getKeyboards",
      "outputs": [
        {
          "components": [
            {
              "internalType": "enum Keyboards.KeyboardKind",
              "name": "kind",
              "type": "uint8"
            },
            {
              "internalType": "bool",
              "name": "isPBT",
              "type": "bool"
            },
            {
              "internalType": "string",
              "name": "filter",
              "type": "string"
            },
            {
              "internalType": "address payable",
              "name": "owner",
              "type": "address"
            }
          ],
          "internalType": "struct Keyboards.Keyboard[]",
          "name": "",
          "type": "tuple[]"
        }
      ],
      "stateMutability": "view",
      "type": "function"
    },
    {
      "inputs": [],
      "name": "protocolOwner",
      "outputs": [
        {
          "internalType": "address",
          "name": "",
          "type": "address"
        }
      ],
      "stateMutability": "view",
      "type": "function"
    },
    {
      "inputs": [
        {
          "internalType": "uint256",
          "name": "_index",
          "type": "uint256"
        }
      ],
      "name": "tip",
      "outputs": [],
      "stateMutability": "payable",
      "type": "function"
    }
  ],
  "bytecode": "0x608060405234801561001057600080fd5b50336000806101000a81548173ffffffffffffffffffffffffffffffffffffffff021916908373ffffffffffffffffffffffffffffffffffffffff160217905550611250806100606000396000f3fe60806040526004361061004a5760003560e01c80634e3b45e11461004f57806352810aa114610078578063778bc847146100a3578063c1d6ba69146100e3578063e8b69bc31461010e575b600080fd5b34801561005b57600080fd5b50610076600480360381019061007191906109c7565b61012a565b005b34801561008457600080fd5b5061008d610329565b60405161009a9190610d66565b60405180910390f35b3480156100af57600080fd5b506100ca60048036038101906100c59190610a33565b610512565b6040516100da9493929190610d88565b60405180910390f35b3480156100ef57600080fd5b506100f8610614565b6040516101059190610d22565b60405180910390f35b61012860048036038101906101239190610a33565b610638565b005b60006040518060800160405280866003811115610170577f4e487b7100000000000000000000000000000000000000000000000000000000600052602160045260246000fd5b8152602001851515815260200184848080601f016020809104026020016040519081016040528093929190818152602001838380828437600081840152601f19601f8201169050808301925050505050505081526020013373ffffffffffffffffffffffffffffffffffffffff168152509050600181908060018154018082558091505060019003906000526020600020906003020160009091909190915060008201518160000160006101000a81548160ff02191690836003811115610260577f4e487b7100000000000000000000000000000000000000000000000000000000600052602160045260246000fd5b021790555060208201518160000160016101000a81548160ff02191690831515021790555060408201518160010190805190602001906102a192919061089b565b5060608201518160020160006101000a81548173ffffffffffffffffffffffffffffffffffffffff021916908373ffffffffffffffffffffffffffffffffffffffff16021790555050507f10a5f72cc15ad697630d0470547e58335ec196e4ce08851d095d19398b1cbdd78160405161031a9190610e14565b60405180910390a15050505050565b60606001805480602002602001604051908101604052809291908181526020016000905b8282101561050957838290600052602060002090600302016040518060800160405290816000820160009054906101000a900460ff1660038111156103bb577f4e487b7100000000000000000000000000000000000000000000000000000000600052602160045260246000fd5b60038111156103f3577f4e487b7100000000000000000000000000000000000000000000000000000000600052602160045260246000fd5b81526020016000820160019054906101000a900460ff161515151581526020016001820180546104229061104e565b80601f016020809104026020016040519081016040528092919081815260200182805461044e9061104e565b801561049b5780601f106104705761010080835404028352916020019161049b565b820191906000526020600020905b81548152906001019060200180831161047e57829003601f168201915b505050505081526020016002820160009054906101000a900473ffffffffffffffffffffffffffffffffffffffff1673ffffffffffffffffffffffffffffffffffffffff1673ffffffffffffffffffffffffffffffffffffffff16815250508152602001906001019061034d565b50505050905090565b6001818154811061052257600080fd5b90600052602060002090600302016000915090508060000160009054906101000a900460ff16908060000160019054906101000a900460ff169080600101805461056b9061104e565b80601f01602080910402602001604051908101604052809291908181526020018280546105979061104e565b80156105e45780601f106105b9576101008083540402835291602001916105e4565b820191906000526020600020905b8154815290600101906020018083116105c757829003601f168201915b5050505050908060020160009054906101000a900473ffffffffffffffffffffffffffffffffffffffff16905084565b60008054906101000a900473ffffffffffffffffffffffffffffffffffffffff1681565b600061064334610879565b9050600060018381548110610681577f4e487b7100000000000000000000000000000000000000000000000000000000600052603260045260246000fd5b906000526020600020906003020160020160009054906101000a900473ffffffffffffffffffffffffffffffffffffffff16905060008173ffffffffffffffffffffffffffffffffffffffff1683346106da9190610f32565b6040516106e690610d0d565b60006040518083038185875af1925050503d8060008114610723576040519150601f19603f3d011682016040523d82523d6000602084013e610728565b606091505b505090508061076c576040517f08c379a000000000000000000000000000000000000000000000000000000000815260040161076390610df4565b60405180910390fd5b7f171011172a05babdafffeb4c3cb97a07f0e1e7a0538eab4f4331336fb76fef05823460405161079d929190610d3d565b60405180910390a160008060009054906101000a900473ffffffffffffffffffffffffffffffffffffffff1673ffffffffffffffffffffffffffffffffffffffff16846040516107ec90610d0d565b60006040518083038185875af1925050503d8060008114610829576040519150601f19603f3d011682016040523d82523d6000602084013e61082e565b606091505b5050905080610872576040517f08c379a000000000000000000000000000000000000000000000000000000000815260040161086990610dd4565b60405180910390fd5b5050505050565b6000606460018361088a9190610ed8565b6108949190610ea7565b9050919050565b8280546108a79061104e565b90600052602060002090601f0160209004810192826108c95760008555610910565b82601f106108e257805160ff1916838001178555610910565b82800160010185558215610910579182015b8281111561090f5782518255916020019190600101906108f4565b5b50905061091d9190610921565b5090565b5b8082111561093a576000816000905550600101610922565b5090565b60008135905061094d816111dc565b92915050565b600081359050610962816111f3565b92915050565b60008083601f84011261097a57600080fd5b8235905067ffffffffffffffff81111561099357600080fd5b6020830191508360018202830111156109ab57600080fd5b9250929050565b6000813590506109c181611203565b92915050565b600080600080606085870312156109dd57600080fd5b60006109eb87828801610953565b94505060206109fc8782880161093e565b935050604085013567ffffffffffffffff811115610a1957600080fd5b610a2587828801610968565b925092505092959194509250565b600060208284031215610a4557600080fd5b6000610a53848285016109b2565b91505092915050565b6000610a688383610c38565b905092915050565b610a7981610fd3565b82525050565b610a8881610f78565b82525050565b610a9781610f78565b82525050565b610aa681610f66565b82525050565b6000610ab782610e46565b610ac18185610e69565b935083602082028501610ad385610e36565b8060005b85811015610b0f5784840389528151610af08582610a5c565b9450610afb83610e5c565b925060208a01995050600181019050610ad7565b50829750879550505050505092915050565b610b2a81610f8a565b82525050565b610b3981610f8a565b82525050565b610b4881610fe5565b82525050565b610b5781610fe5565b82525050565b6000610b6882610e51565b610b728185610e85565b9350610b8281856020860161101b565b610b8b8161113c565b840191505092915050565b6000610ba182610e51565b610bab8185610e96565b9350610bbb81856020860161101b565b610bc48161113c565b840191505092915050565b6000610bdc602383610e96565b9150610be78261114d565b604082019050919050565b6000610bff601a83610e96565b9150610c0a8261119c565b602082019050919050565b6000610c22600083610e7a565b9150610c2d826111c5565b600082019050919050565b6000608083016000830151610c506000860182610b3f565b506020830151610c636020860182610b21565b5060408301518482036040860152610c7b8282610b5d565b9150506060830151610c906060860182610a7f565b508091505092915050565b6000608083016000830151610cb36000860182610b3f565b506020830151610cc66020860182610b21565b5060408301518482036040860152610cde8282610b5d565b9150506060830151610cf36060860182610a7f565b508091505092915050565b610d0781610fc9565b82525050565b6000610d1882610c15565b9150819050919050565b6000602082019050610d376000830184610a9d565b92915050565b6000604082019050610d526000830185610a70565b610d5f6020830184610cfe565b9392505050565b60006020820190508181036000830152610d808184610aac565b905092915050565b6000608082019050610d9d6000830187610b4e565b610daa6020830186610b30565b8181036040830152610dbc8185610b96565b9050610dcb6060830184610a8e565b95945050505050565b60006020820190508181036000830152610ded81610bcf565b9050919050565b60006020820190508181036000830152610e0d81610bf2565b9050919050565b60006020820190508181036000830152610e2e8184610c9b565b905092915050565b6000819050602082019050919050565b600081519050919050565b600081519050919050565b6000602082019050919050565b600082825260208201905092915050565b600081905092915050565b600082825260208201905092915050565b600082825260208201905092915050565b6000610eb282610fc9565b9150610ebd83610fc9565b925082610ecd57610ecc6110af565b5b828204905092915050565b6000610ee382610fc9565b9150610eee83610fc9565b9250817fffffffffffffffffffffffffffffffffffffffffffffffffffffffffffffffff0483118215151615610f2757610f26611080565b5b828202905092915050565b6000610f3d82610fc9565b9150610f4883610fc9565b925082821015610f5b57610f5a611080565b5b828203905092915050565b6000610f7182610fa9565b9050919050565b6000610f8382610fa9565b9050919050565b60008115159050919050565b6000819050610fa4826111c8565b919050565b600073ffffffffffffffffffffffffffffffffffffffff82169050919050565b6000819050919050565b6000610fde82610ff7565b9050919050565b6000610ff082610f96565b9050919050565b600061100282611009565b9050919050565b600061101482610fa9565b9050919050565b60005b8381101561103957808201518184015260208101905061101e565b83811115611048576000848401525b50505050565b6000600282049050600182168061106657607f821691505b6020821081141561107a5761107961110d565b5b50919050565b7f4e487b7100000000000000000000000000000000000000000000000000000000600052601160045260246000fd5b7f4e487b7100000000000000000000000000000000000000000000000000000000600052601260045260246000fd5b7f4e487b7100000000000000000000000000000000000000000000000000000000600052602160045260246000fd5b7f4e487b7100000000000000000000000000000000000000000000000000000000600052602260045260246000fd5b6000601f19601f8301169050919050565b7f4661696c656420746f2073656e64206f776e65722070726f746f636f6c20457460008201527f6865720000000000000000000000000000000000000000000000000000000000602082015250565b7f4661696c656420746f2073656e64206f776e6572204574686572000000000000600082015250565b50565b600481106111d9576111d86110de565b5b50565b6111e581610f8a565b81146111f057600080fd5b50565b6004811061120057600080fd5b50565b61120c81610fc9565b811461121757600080fd5b5056fea26469706673582212205f3402f62f712a89285eb38fff15207616d140e5980932cf0fe1ab1de374b4ef64736f6c63430008040033",
  "linkReferences": {},
  "deployedLinkReferences": {}
}